:1000000009C021C020C043C01EC01DC01CC01BC0F1
:100010001AC019C011241FBECFE9CDBF10E0A0E661
:10002000B0E0EAEEF3E002C005900D92AA36B10707
:10003000D9F720E0AAE6B0E001C01D92A338B207CC
:10004000E1F7C7D0D0C1DCCFBA9ABC9ABB9AC298AC
:10005000C498C3980895C39AC3980895ECE6F0E055
:10006000229188E090E027FF02C0C29A01C0C298A6
:10007000C49AC498220F0197B1F780E0EA36F807D6
:1000800079F70895FB01E659FF4F8083E7CF1F9270
:100090000F920FB60F9211242F933F934F935F93BC
:1000A0006F937F938F939F93AF93BF93EF93FF9340
:1000B0008091710090917200A0917300B0917400D2
:1000C0000196A11DB11D8093710090937200A093C1
:1000D0007300B0937400E0918100F0918200CF0131
:1000E00064E670E04AD160936C002AE030E0B90128
:1000F00044D160936D00CF01B9013FD180936E0070
:1001000020916F0081E090E002C0880F991F2A952E
:10011000E2F761E070E080959095B4DFE0916F00C8
:10012000F0E0E459FF4FE081F0E0E05AFF4F8081BA
:1001300060E070E090E0A6DF80916F008F5F8093B9
:100140006F0080916F00833011F410926F0083DF95
:10015000FF91EF91BF91AF919F918F917F916F919F
:100160005F914F913F912F910F900FBE0F901F9075
:100170001895F894609171007091720080917300ED
:1001800090917400789425E230E040E050E009D18D
:10019000CA01B901089589B78D7F89BF1092710096
:1001A00010927200109273001092740089B78260EE
:1001B00089BF089587B180746370682B67B986B171
:1001C000806C86B93699FECF84B125B190E0922B30
:1001D00008953ADF83B7816083BF8FB583608FBD99
:1001E00012BE89B7826089BFB99AC198B898C09A7F
:1001F000789411E0CEEDD3E060E070E0CB01DADF7F
:10020000A0E0B0E08093750090937600A093770013
:10021000B0937800AEDF6B017C0180917000882381
:1002200001F18091790090917A0088519C4FA0E073
:10023000B0E08C159D05AE05BF0598F48091810056
:100240009091820001979093820080938100892B86
:1002500021F4109270009FDFC198D0927A00C09272
:1002600079008091750090917600A0917700B0910F
:100270007800875A9240A109B1090897A105B105F4
:10028000D8F480917B0090917C0088519C4FA0E035
:10029000B0E08C159D05AE05BF0570F4809170002F
:1002A00081278093700077DF809170008111C19A5F
:1002B000D0927C00C0927B008091700081119CCF15
:1002C00040917500509176006091770070917800B0
:1002D000443151056105710518F580917F009091B9
:1002E0008000845D9E4FA0E0B0E08C159D05AE05BA
:1002F000BF05B0F480918100909182008E3D23E093
:10030000920731F00F96909382008093810004C091
:100310001092820010928100D0928000C0927F00E3
:100320004A5F514061097109493051056105710504
:1003300008F062CF80917D0090917E00845D9E4F99
:10034000A0E0B0E08C159D05AE05BF0508F054CFC8
:100350008091810090918200009731F00F979093E7
:1003600082008093810004C0D0938200C0938100FA
:10037000D0927E00C0927D003FCFAA1BBB1B51E1F3
:1003800007C0AA1FBB1FA617B70710F0A61BB70B05
:10039000881F991F5A95A9F780959095BC01CD01AA
:1003A0000895A1E21A2EAA1BBB1BFD010DC0AA1FB6
:1003B000BB1FEE1FFF1FA217B307E407F50720F0CE
:1003C000A21BB30BE40BF50B661F771F881F991F49
:1003D0001A9469F760957095809590959B01AC0192
:0A03E000BD01CF010895F894FFCF8E
:0A03EA003F065B4F666D7D077F6FD5
:00000001FF
